{
  "contractName": "SafeMath",
  "abi": [
    {
      "constant": true,
      "inputs": [
        {
          "name": "a",
          "type": "uint256"
        },
        {
          "name": "b",
          "type": "uint256"
        }
      ],
      "name": "sub",
      "outputs": [
        {
          "name": "",
          "type": "uint256"
        }
      ],
      "payable": false,
      "stateMutability": "pure",
      "type": "function"
    },
    {
      "constant": true,
      "inputs": [
        {
          "name": "a",
          "type": "uint256"
        },
        {
          "name": "b",
          "type": "uint256"
        }
      ],
      "name": "add",
      "outputs": [
        {
          "name": "",
          "type": "uint256"
        }
      ],
      "payable": false,
      "stateMutability": "pure",
      "type": "function"
    }
  ],
  "bytecode": "0x608060405234801561001057600080fd5b50610172806100206000396000f3fe60806040526004361061004c576000357c0100000000000000000000000000000000000000000000000000000000900463ffffffff168063771602f714610051578063b67d77c5146100aa575b600080fd5b34801561005d57600080fd5b506100946004803603604081101561007457600080fd5b810190808035906020019092919080359060200190929190505050610103565b6040518082815260200191505060405180910390f35b3480156100b657600080fd5b506100ed600480360360408110156100cd57600080fd5b810190808035906020019092919080359060200190929190505050610124565b6040518082815260200191505060405180910390f35b600080828401905083811015151561011a57600080fd5b8091505092915050565b600082821115151561013557600080fd5b60008284039050809150509291505056fea165627a7a72305820869d8dad9591d6a774dafd502c15cacac717bd636ee0a4ff8615bdfd2d23c8cb0029",
  "source": "pragma solidity ^0.5.0;\n\n/**\n * @title SafeMath\n * @dev Unsigned math operations with safety checks that revert on error\n */\ncontract SafeMath {\n    /**\n    * @dev Subtracts two unsigned integers, reverts on overflow (i.e. if subtrahend is greater than minuend).\n    */\n    function sub(uint256 a, uint256 b) public pure returns (uint256) {\n        require(b <= a);\n        uint256 c = a - b;\n        return c;\n    }\n\n    /**\n    * @dev Adds two unsigned integers, reverts on overflow.\n    */\n    function add(uint256 a, uint256 b) public pure returns (uint256) {\n        uint256 c = a + b;\n        require(c >= a);\n        return c;\n    }\n}",
  "sourcePath": "/home/aery/blockchain/design_patterns/dev-tools-truffle-example/contracts/SafeMath.sol",
  "compiler": {
    "name": "solc",
    "version": "0.5.0+commit.1d4f565a.Emscripten.clang"
  },
  "schemaVersion": "3.0.1",
  "updatedAt": "2019-01-30T00:13:42.430Z",
  "devdoc": {
    "details": "Unsigned math operations with safety checks that revert on error",
    "methods": {
      "add(uint256,uint256)": {
        "details": "Adds two unsigned integers, reverts on overflow."
      },
      "sub(uint256,uint256)": {
        "details": "Subtracts two unsigned integers, reverts on overflow (i.e. if subtrahend is greater than minuend)."
      }
    },
    "title": "SafeMath"
  },
  "userdoc": {
    "methods": {}
  }
}